{
  "_format": "hh-sol-artifact-1",
  "contractName": "BlackjackSettlement",
  "sourceName": "contracts/blackjack_settlement.sol",
  "abi": [
    {
      "inputs": [
        {
          "internalType": "address",
          "name": "vaultAddr",
          "type": "address"
        }
      ],
      "stateMutability": "nonpayable",
      "type": "constructor"
    },
    {
      "anonymous": false,
      "inputs": [
        {
          "indexed": true,
          "internalType": "uint256",
          "name": "roundId",
          "type": "uint256"
        },
        {
          "indexed": true,
          "internalType": "address",
          "name": "player",
          "type": "address"
        },
        {
          "indexed": false,
          "internalType": "uint128",
          "name": "stakeWei",
          "type": "uint128"
        },
        {
          "indexed": false,
          "internalType": "uint128",
          "name": "payoutWei",
          "type": "uint128"
        },
        {
          "indexed": false,
          "internalType": "uint8[]",
          "name": "playerCards",
          "type": "uint8[]"
        },
        {
          "indexed": false,
          "internalType": "uint8",
          "name": "dealerUp",
          "type": "uint8"
        },
        {
          "indexed": false,
          "internalType": "uint8",
          "name": "dealerHole",
          "type": "uint8"
        },
        {
          "indexed": false,
          "internalType": "uint8[]",
          "name": "dealerDraws",
          "type": "uint8[]"
        }
      ],
      "name": "RoundSettled",
      "type": "event"
    },
    {
      "anonymous": false,
      "inputs": [
        {
          "indexed": true,
          "internalType": "uint256",
          "name": "roundId",
          "type": "uint256"
        },
        {
          "indexed": true,
          "internalType": "address",
          "name": "player",
          "type": "address"
        },
        {
          "indexed": false,
          "internalType": "uint128",
          "name": "stakeWei",
          "type": "uint128"
        },
        {
          "indexed": false,
          "internalType": "bytes32",
          "name": "deckRoot",
          "type": "bytes32"
        },
        {
          "indexed": false,
          "internalType": "uint8",
          "name": "holePos",
          "type": "uint8"
        },
        {
          "indexed": false,
          "internalType": "bytes32",
          "name": "holeLeaf",
          "type": "bytes32"
        }
      ],
      "name": "RoundStarted",
      "type": "event"
    },
    {
      "inputs": [],
      "name": "MAX_BET",
      "outputs": [
        {
          "internalType": "uint256",
          "name": "",
          "type": "uint256"
        }
      ],
      "stateMutability": "view",
      "type": "function"
    },
    {
      "inputs": [
        {
          "internalType": "uint256",
          "name": "",
          "type": "uint256"
        }
      ],
      "name": "R",
      "outputs": [
        {
          "internalType": "address",
          "name": "player",
          "type": "address"
        },
        {
          "internalType": "uint128",
          "name": "stakeWei",
          "type": "uint128"
        },
        {
          "internalType": "bytes32",
          "name": "deckRoot",
          "type": "bytes32"
        },
        {
          "internalType": "uint8",
          "name": "holePos",
          "type": "uint8"
        },
        {
          "internalType": "bytes32",
          "name": "holeLeaf",
          "type": "bytes32"
        },
        {
          "internalType": "bool",
          "name": "settled",
          "type": "bool"
        }
      ],
      "stateMutability": "view",
      "type": "function"
    },
    {
      "inputs": [
        {
          "internalType": "uint8",
          "name": "id",
          "type": "uint8"
        }
      ],
      "name": "cardName",
      "outputs": [
        {
          "internalType": "string",
          "name": "",
          "type": "string"
        }
      ],
      "stateMutability": "pure",
      "type": "function"
    },
    {
      "inputs": [],
      "name": "nextRoundId",
      "outputs": [
        {
          "internalType": "uint256",
          "name": "",
          "type": "uint256"
        }
      ],
      "stateMutability": "view",
      "type": "function"
    },
    {
      "inputs": [
        {
          "internalType": "uint256",
          "name": "roundId",
          "type": "uint256"
        },
        {
          "internalType": "uint8",
          "name": "holeCardId",
          "type": "uint8"
        },
        {
          "internalType": "bytes32",
          "name": "holeSalt",
          "type": "bytes32"
        },
        {
          "internalType": "bytes32[]",
          "name": "holeProof",
          "type": "bytes32[]"
        },
        {
          "components": [
            {
              "internalType": "uint8",
              "name": "pos",
              "type": "uint8"
            },
            {
              "internalType": "uint8",
              "name": "cardId",
              "type": "uint8"
            },
            {
              "internalType": "bytes32",
              "name": "salt",
              "type": "bytes32"
            },
            {
              "internalType": "bytes32[]",
              "name": "proof",
              "type": "bytes32[]"
            }
          ],
          "internalType": "struct BlackjackSettlement.Reveal[]",
          "name": "initial3",
          "type": "tuple[]"
        },
        {
          "components": [
            {
              "internalType": "uint8",
              "name": "pos",
              "type": "uint8"
            },
            {
              "internalType": "uint8",
              "name": "cardId",
              "type": "uint8"
            },
            {
              "internalType": "bytes32",
              "name": "salt",
              "type": "bytes32"
            },
            {
              "internalType": "bytes32[]",
              "name": "proof",
              "type": "bytes32[]"
            }
          ],
          "internalType": "struct BlackjackSettlement.Reveal[]",
          "name": "playerExtra",
          "type": "tuple[]"
        },
        {
          "components": [
            {
              "internalType": "uint8",
              "name": "pos",
              "type": "uint8"
            },
            {
              "internalType": "uint8",
              "name": "cardId",
              "type": "uint8"
            },
            {
              "internalType": "bytes32",
              "name": "salt",
              "type": "bytes32"
            },
            {
              "internalType": "bytes32[]",
              "name": "proof",
              "type": "bytes32[]"
            }
          ],
          "internalType": "struct BlackjackSettlement.Reveal[]",
          "name": "dealerDraws",
          "type": "tuple[]"
        },
        {
          "internalType": "bool",
          "name": "doubled",
          "type": "bool"
        },
        {
          "internalType": "bool",
          "name": "split",
          "type": "bool"
        },
        {
          "components": [
            {
              "internalType": "uint8",
              "name": "pos",
              "type": "uint8"
            },
            {
              "internalType": "uint8",
              "name": "cardId",
              "type": "uint8"
            },
            {
              "internalType": "bytes32",
              "name": "salt",
              "type": "bytes32"
            },
            {
              "internalType": "bytes32[]",
              "name": "proof",
              "type": "bytes32[]"
            }
          ],
          "internalType": "struct BlackjackSettlement.Reveal[]",
          "name": "hand1Extra",
          "type": "tuple[]"
        },
        {
          "components": [
            {
              "internalType": "uint8",
              "name": "pos",
              "type": "uint8"
            },
            {
              "internalType": "uint8",
              "name": "cardId",
              "type": "uint8"
            },
            {
              "internalType": "bytes32",
              "name": "salt",
              "type": "bytes32"
            },
            {
              "internalType": "bytes32[]",
              "name": "proof",
              "type": "bytes32[]"
            }
          ],
          "internalType": "struct BlackjackSettlement.Reveal[]",
          "name": "hand2Extra",
          "type": "tuple[]"
        }
      ],
      "name": "settle",
      "outputs": [],
      "stateMutability": "nonpayable",
      "type": "function"
    },
    {
      "inputs": [
        {
          "internalType": "bytes32",
          "name": "deckRoot",
          "type": "bytes32"
        },
        {
          "internalType": "uint8",
          "name": "holePos",
          "type": "uint8"
        },
        {
          "internalType": "bytes32",
          "name": "holeLeaf",
          "type": "bytes32"
        },
        {
          "internalType": "uint128",
          "name": "stakeWei",
          "type": "uint128"
        }
      ],
      "name": "startRound",
      "outputs": [
        {
          "internalType": "uint256",
          "name": "roundId",
          "type": "uint256"
        }
      ],
      "stateMutability": "nonpayable",
      "type": "function"
    },
    {
      "inputs": [],
      "name": "vault",
      "outputs": [
        {
          "internalType": "contract IUserVaultSystem",
          "name": "",
          "type": "address"
        }
      ],
      "stateMutability": "view",
      "type": "function"
    }
  ],
  "bytecode": "0x60803461007457601f6118fb38819003918201601f19168301916001600160401b038311848410176100795780849260209460405283398101031261007457516001600160a01b0381169081900361007457600080546001600160a01b03191691909117905560405161186b90816100908239f35b600080fd5b634e487b7160e01b600052604160045260246000fdfe61030080604052600436101561001457600080fd5b60006102c05260003560e01c9081631367d0ab1461101d575080634002eda614610ffc5780636ece35531461046f5780637e95b52314610449578063c45ac77c14610127578063e5cfd849146100a75763fbfa77cf1461007357600080fd5b346100a0576102c0518060031936011261009d57546040516001600160a01b039091168152602090f35b80fd5b6102c05180fd5b346100a05760203660031901126100a0576004356102c05152600260205260c060406102c0512060018060a01b03815416906001600160801b0360018201541690600281015460ff6003830154169060ff6005600485015494015416936040519586526020860152604085015260608401526080830152151560a0820152f35b346100a0576020806003193601126100a05760043560ff811680910361044457604051906001600160401b036101a083018181118482101761042e5780604052610170816112d4565b600190818152604160f81b6101c0860152845260405161018f816112d4565b818152601960f91b86820152858501526040516101ab816112d4565b818152603360f81b8682015260408501526040516101c8816112d4565b818152600d60fa1b8682015260608501526040516101e5816112d4565b818152603560f81b868201526080850152604051610202816112d4565b818152601b60f91b8682015260a085015260405161021f816112d4565b818152603760f81b8682015260c085015260405161023c816112d4565b818152600760fb1b8682015260e0850152604051610259816112d4565b818152603960f81b86820152610100850152604051610277816112d4565b6002815261031360f41b86820152610120850152604051610297816112d4565b818152602560f91b868201526101408501526040516102b5816112d4565b818152605160f81b86820152610160850152604051906102d4826112d4565b8152604b60f81b8582015261018084015260405190608082019081118282101761042e5780604052610305816112d4565b6003815262e299a360e81b60a08301528152604051610323816112d4565b6003815262714cd360e91b8582015281850152604051610342816112d4565b6003815262e299a560e81b858201526040820152604051610362816112d4565b60038152620714cd60ed1b858201526060820152600d808306939060ff8516101561041457600d90611fe0809560051b160151920492600460ff851610156104145760409360051b160151906103ea8484518094826103ca8184019687815193849201611296565b82016103de82518093868085019101611296565b010380855201836112ef565b6104068351948593818552519283809286015285850190611296565b601f01601f19168101030190f35b634e487b7160e01b6102c05152603260045260246102c051fd5b634e487b7160e01b600052604160045260246000fd5b600080fd5b346100a0576102c0518060031936011261009d576020604051670de0b6b3a76400008152f35b346100a0576101603660031901126100a057610489611256565b610220526064356001600160401b0381116100a0576104ac903690600401611266565b9060a0526084356001600160401b0381116100a0576104cf903690600401611266565b610140526102405260a4356001600160401b0381116100a0576104f6903690600401611266565b6101a05260c4356001600160401b0381116100a057610519903690600401611266565b6101e0526102a05260e435151560e435036100a05761010435151561010435036100a057610124356001600160401b0381116100a05761055d903690600401611266565b906001600160401b0361014435116100a05761057f3661014435600401611266565b608052610260526102c080516004359052600260205251604090206101c0819052546001600160a01b031693338503610fce5760ff60056101c05101806102e0525416610f9f5760036101405103610f725761010435610f3c575b6040516102205160f81b6001600160f81b0319166020820152604435602182015261061281604181015b03601f1981018352826112ef565b6020815191012060046101c051015403610f0c57610657906101c05160ff60036002830154928361016052015416806101205260a05191604435916102205191611654565b6102c0515060ff61067a6106716101405161024051611335565b8060c0526113b4565b16610ee1576101205160ff61069060c0516113b4565b1614610eb25760c0516106a2816113b4565b6106ae602083016113b4565b918261010052606081013591601e19823603018312156100a0576001600160401b0383830135116100a0578282013560051b3603602084840101136100a05761070a936040602085850135958501019301359161016051611654565b610752604051610719816112b9565b6102c05181526102c05160208201526102c051604082015261074c60206107466101405161024051611335565b016113b4565b90611489565b6102805261012051600194908514610ea9575b610782856107796101405161024051611350565b6101c0516115c3565b6108056107cf6107c4604051610797816112b9565b6102c05181526102c05160208201526102c051604082015261074c60206107466101405161024051611350565b9661012051906115a7565b6107e3816107796101405161024051611371565b6107f860206107466101405161024051611371565b60e05261012051906115a7565b926101043515610e31576102c0959395515b818110610de757506102c051935b60805180861015610879576108616108729261084c8a6107798a61086c9661026051611392565b61074c60206107468a60805161026051611392565b9761012051906115a7565b94611310565b9395610825565b50909493509490945b6108bf604051610891816112b9565b6102c05181526102c05160208201526102c05160408201526108ba610220519160e05190611489565b611489565b916102c051925b601160ff8251161015610ddf576101e051841015610dae5761091e610913610924926108fd85610779896101e0516102a051611392565b61074c6020610746896101e0516102a051611392565b9261012051906115a7565b93611310565b601560ff835116116109375792906108c6565b9092505b6101e05103610d7c5760016101c05101806101805254916102c05161010435600014610cee575060ff9261099c610990928561028051511690866001600160801b03978896878097168095838651169061175c565b9751169151169061175c565b16911601908111610bac57935b6001600160801b038516610c5e575b506102e051805460ff191660011790556102c051916101043515610c5457835b6101043515610c4e57608051935b85600201600211610c365750610a07610a0285876002016113c2565b6113e6565b61020052610a2060206107466101405161024051611335565b6102005190815115610c205760ff60209116910152610a4a60206107466101405161024051611350565b6102005190815160011015610c205760ff604091169101526102c0515b858110610bc657505050506102c0515b818110610b675783610a8b6101e0516113e6565b6102c0515b6101e0519081811015610acd57610ab3602061074683610ac8956102a051611392565b60ff610abf8386611418565b91169052611310565b610a90565b50507ff318021f962a9c9cad487b96b26dd3147dcd3f7e80a70db0fb0deef0daa4499560018060a01b036101c0515416926001600160801b03806101805154169160405192835216602082015260c0604082015280610b5d610b3560c083016102005161142c565b60ff60e05116606084015260ff6102205116608084015282810360a08401526004359561142c565b0390a36102c05180f35b610b7c60206107468360805161026051611392565b9083600201600211610bac57610ba79160ff610abf610b9e84886002016113c2565b61020051611418565b610a77565b634e487b7160e01b6102c05152601160045260246102c051fd5b6101043515610c0757610bdf6020610746838588611392565b905b80600201600211610bac57610c029160ff610abf8360020161020051611418565b610a67565b610c1a6020610746836101a05187611392565b90610be1565b634e487b7160e01b600052603260045260246000fd5b634e487b7160e01b905260116004526102c051602490fd5b836109e6565b6101a051936109d8565b6102c05180546001600160a01b031690813b1561009d575060405191634fee0bd560e11b835260048301526001600160801b0386166024830152816044816102c05180945af18015610ce057156109b8576001600160401b038111610cc657604052846109b8565b634e487b7160e01b6102c05152604160045260246102c051fd5b6040513d6102c051823e3d90fd5b91506102805192600260ff604086015116149384610d6d575b506001600160801b0381169260e435610d39575b5050610d339260ff80610280515116925116916117ae565b936109a9565b909192806002600160811b038460011b160460021490151715610c36575060011b6002600160801b031690610d3388610d1b565b5160ff16601514935088610d07565b60405162461bcd60e51b815260206004820152600a602482015269115615149057d0d0549160b21b6044820152606490fd5b60405162461bcd60e51b81526020600482015260096024820152681391515117d0d0549160ba1b6044820152606490fd5b92905061093b565b939561086c81610dff610e299361077989878a611392565b610e1b610e1260206107468a888b611392565b61028051611489565b6102805261012051906115a7565b959395610817565b610e4f610e1260206107466101409996999897985161024051611350565b610280526102c051945b6101a05180871015610e9d5781610e7b610e97936107798a610e91958b611392565b610e1b610e1260206107468b6101a0518c611392565b95611310565b94610e59565b50919592909450610882565b60029450610765565b60405162461bcd60e51b8152602060048201526007602482015266484f4c45504f5360c81b6044820152606490fd5b60405162461bcd60e51b8152602060048201526003602482015262504f5360e81b6044820152606490fd5b60405162461bcd60e51b81526020600482015260086024820152672427a622a622a0a360c11b6044820152606490fd5b60e435156105da5760405162461bcd60e51b81526020600482015260066024820152654e4f5f44415360d01b6044820152606490fd5b60405162461bcd60e51b8152602060048201526005602482015264494e49543360d81b6044820152606490fd5b60405162461bcd60e51b815260206004820152600760248201526614d1551513115160ca1b6044820152606490fd5b60405162461bcd60e51b8152602060048201526006602482015265282620aca2a960d11b6044820152606490fd5b346100a0576102c0518060031936011261009d576020600154604051908152f35b3461044457608036600319011261044457600435611039611256565b90604435606435916001600160801b03948584168094036104445783151580611244575b1561121c57506102c05154604051639ac27dd360e01b81526020966001600160a01b03939290919088908290600490829088165afa8015610ce05786916102c051916111eb575b50106111c0576110b5600154611310565b95866001556040519360c08501928584106001600160401b03851117610cc65789958760ff936005938c97604052338452898401908c825260408501928a8452600288606088019a169c8d8b526080880196875260a088019b6102c0518d526102c051525260406102c051209551166bffffffffffffffffffffffff60a01b865416178555600185019151166001600160801b03198254161790555160028301558360038301955116948419958682541617905551600482015501925115159183541691161790556040519384528584015260408301526060820152817f851245cf748ea7f1e668be9648987eea87fcca7f0889f05ff24cd794581af96860803393a3604051908152f35b60405162461bcd60e51b815260048082018990526024820152631413d3d360e21b6044820152606490fd5b809250898092503d8311611215575b61120481836112ef565b810103126100a057859051896110a4565b503d6111fa565b62461bcd60e51b815260206004820152600360248201526210915560ea1b6044820152606490fd5b50670de0b6b3a764000084111561105d565b6024359060ff8216820361044457565b9181601f84011215610444578235916001600160401b038311610444576020808501948460051b01011161044457565b60005b8381106112a95750506000910152565b8181015183820152602001611299565b606081019081106001600160401b0382111761042e57604052565b604081019081106001600160401b0382111761042e57604052565b90601f801991011681019081106001600160401b0382111761042e57604052565b600019811461131f5760010190565b634e487b7160e01b600052601160045260246000fd5b9015610c2057803590607e1981360301821215610444570190565b9060011015610c2057602081013590607e1981360301821215610444570190565b9060021015610c2057604081013590607e1981360301821215610444570190565b9190811015610c205760051b81013590607e1981360301821215610444570190565b3560ff811681036104445790565b9190820180921161131f57565b6001600160401b03811161042e5760051b60200190565b906113f0826113cf565b6113fd60405191826112ef565b828152809261140e601f19916113cf565b0190602036910137565b8051821015610c205760209160051b010190565b90815180825260208080930193019160005b82811061144c575050505090565b835160ff168552938101939281019260010161143e565b60ff60019116019060ff821161131f57565b9060ff8091169116019060ff821161131f57565b916040928351611498816112b9565b60009481868093528260208201520152600d60ff8094160691838316928315938460001461157e5750506114ec6114d4600b5b86855116611475565b93856020850151169060001461157757600190611475565b925b84811690601582118061156c575b156115345750600919018481116115205792841680156115205760001901926114ee565b634e487b7160e01b86526011600452602486fd5b948094938193975061154b92506040015116611463565b91816040519561155a876112b9565b16855216602084015216604082015290565b5085851615156114fc565b8690611475565b600910611599576114d46115946114ec92611463565b6114cb565b506114ec6114d4600a6114cb565b60ff600181920116911681146115ba5790565b60010160ff1690565b909160ff806115d1856113b4565b9216911603610ee1576115e3826113b4565b60ff80600384015416911614610eb25760020154611600826113b4565b61160c602084016113b4565b916060840135601e1985360301811215610444578401928335936001600160401b03851161044457602001928460051b3603841361044457604061165296013592611654565b565b92949093919360ff604095865161168a8161060460209b8c83019586909160219260ff60f81b9060f81b16825260018201520190565b519020911690926000915b8383106116d45750505050036116a9575050565b60649250519062461bcd60e51b825260048201526005602482015264282927a7a360d91b6044820152fd5b611713908360051b8301359560019687831615600014611719578951908b82019283528a820152898152611707816112b9565b519020955b1c92611310565b91611695565b908951908b82019283528a820152898152611733816112b9565b5190209561170c565b60011b906002600160811b036002600160801b0383169216820361131f57565b60ff169190601583116117a65760ff166015811161179b578083146117955760009211156117915761178e915061173c565b90565b5090565b50905090565b5061178e915061173c565b505050600090565b909291926117e75760ff1691601583116117a65760ff166015811161179b578083146117955760009211156117915761178e915061173c565b509060009060ff166015036117fa575090565b6001600160801b0380921690600582029180830460051490151715611821575060011c1690565b634e487b7160e01b81526011600452602490fdfea264697066735822122065ff156a0c1bdbbd539a05b2d78f16912970d22301e9b3e82485ceee5a30d49e64736f6c63430008140033",
  "linkReferences": {},
  "deployedLinkReferences": {}
}